{
    "contractName": "Decentragram",
    "abi": [
        {
            "constant": true,
            "inputs": [],
            "name": "name",
            "outputs": [
                {
                    "name": "",
                    "type": "string"
                }
            ],
            "payable": false,
            "stateMutability": "view",
            "type": "function"
        },
        {
            "constant": true,
            "inputs": [
                {
                    "name": "",
                    "type": "uint256"
                }
            ],
            "name": "images",
            "outputs": [
                {
                    "name": "id",
                    "type": "uint256"
                },
                {
                    "name": "hash",
                    "type": "string"
                },
                {
                    "name": "description",
                    "type": "string"
                },
                {
                    "name": "tipAmount",
                    "type": "uint256"
                },
                {
                    "name": "author",
                    "type": "address"
                }
            ],
            "payable": false,
            "stateMutability": "view",
            "type": "function"
        },
        {
            "constant": true,
            "inputs": [],
            "name": "imageCount",
            "outputs": [
                {
                    "name": "",
                    "type": "uint256"
                }
            ],
            "payable": false,
            "stateMutability": "view",
            "type": "function"
        },
        {
            "constant": false,
            "inputs": [],
            "name": "uploadImage",
            "outputs": [],
            "payable": false,
            "stateMutability": "nonpayable",
            "type": "function"
        }
    ],
    "bytecode": "60c0604052600c60808190527f446563656e7472616772616d000000000000000000000000000000000000000060a090815261003e9160009190610056565b50600060015534801561005057600080fd5b506100f1565b828054600181600116156101000203166002900490600052602060002090601f016020900481019282601f1061009757805160ff19168380011785556100c4565b828001600101855582156100c4579182015b828111156100c45782518255916020019190600101906100a9565b506100d09291506100d4565b5090565b6100ee91905b808211156100d057600081556001016100da565b90565b61068b806101006000396000f3fe6080604052600436106100615763ffffffff7c010000000000000000000000000000000000000000000000000000000060003504166306fdde03811461006657806384856482146100f057806392053b6314610239578063e09fb11914610260575b600080fd5b34801561007257600080fd5b5061007b610277565b6040805160208082528351818301528351919283929083019185019080838360005b838110156100b557818101518382015260200161009d565b50505050905090810190601f1680156100e25780820380516001836020036101000a031916815260200191505b509250505060405180910390f35b3480156100fc57600080fd5b5061011a6004803603602081101561011357600080fd5b5035610305565b6040518086815260200180602001806020018581526020018473ffffffffffffffffffffffffffffffffffffffff1673ffffffffffffffffffffffffffffffffffffffff168152602001838103835287818151815260200191508051906020019080838360005b83811015610199578181015183820152602001610181565b50505050905090810190601f1680156101c65780820380516001836020036101000a031916815260200191505b50838103825286518152865160209182019188019080838360005b838110156101f95781810151838201526020016101e1565b50505050905090810190601f1680156102265780820380516001836020036101000a031916815260200191505b5097505050505050505060405180910390f35b34801561024557600080fd5b5061024e61045f565b60408051918252519081900360200190f35b34801561026c57600080fd5b50610275610465565b005b6000805460408051602060026001851615610100026000190190941693909304601f810184900484028201840190925281815292918301828280156102fd5780601f106102d2576101008083540402835291602001916102fd565b820191906000526020600020905b8154815290600101906020018083116102e057829003601f168201915b505050505081565b60026020818152600092835260409283902080546001808301805487519281161561010002600019011695909504601f81018590048502820185019096528581529094919390929091908301828280156103a05780601f10610375576101008083540402835291602001916103a0565b820191906000526020600020905b81548152906001019060200180831161038357829003601f168201915b50505060028085018054604080516020601f60001961010060018716150201909416959095049283018590048502810185019091528181529596959450909250908301828280156104325780601f1061040757610100808354040283529160200191610432565b820191906000526020600020905b81548152906001019060200180831161041557829003601f168201915b50505050600383015460049093015491929173ffffffffffffffffffffffffffffffffffffffff16905085565b60015481565b6040805160a081018252600180825282518084018452600681527f617364666173000000000000000000000000000000000000000000000000000060208281019190915280840191825284518086018652600d81527f48656c6c6f2c20576f726c642100000000000000000000000000000000000000818301529484019490945260006060840181905260808401819052919091526002835281517fe90b7bceb6e7df5418fb78d8ee546e97c83a08bbccc01a0644d599ccd2a7c2e09081559051805192939192610559927fe90b7bceb6e7df5418fb78d8ee546e97c83a08bbccc01a0644d599ccd2a7c2e19201906105c4565b50604082015180516105759160028401916020909101906105c4565b50606082015160038201556080909101516004909101805473ffffffffffffffffffffffffffffffffffffffff191673ffffffffffffffffffffffffffffffffffffffff909216919091179055565b828054600181600116156101000203166002900490600052602060002090601f016020900481019282601f1061060557805160ff1916838001178555610632565b82800160010185558215610632579182015b82811115610632578251825591602001919060010190610617565b5061063e929150610642565b5090565b61065c91905b8082111561063e5760008155600101610648565b9056fea165627a7a72305820bbc89c0488a5e956522e7ceef8e5f8d5626bc395fdf341d760aacd6bd181c13f0029",
    "sourcePath": "d:/decentragram/src/contracts/Decentragram.sol",
    "compiler": {
        "name": "solc",
        "version": "0.5.0+commit.1d4f565a"
    },
    "functionHashes": {
        "imageCount()": "92053b63",
        "images(uint256)": "84856482",
        "name()": "06fdde03",
        "uploadImage()": "e09fb119"
    },
    "gasEstimates": {
        "creation": {
            "codeDepositCost": "335000",
            "executionCost": "infinite",
            "totalCost": "infinite"
        },
        "external": {
            "imageCount()": "428",
            "images(uint256)": "infinite",
            "name()": "infinite",
            "uploadImage()": "infinite"
        }
    }
}